:020000040800F2
:1000000000C00020B5360008BD300008BF30000831
:10001000C1300008C3300008C530000800000000EF
:10002000000000000000000000000000C7300008D1
:10003000C930000800000000CB300008CD300008B7
:10004000FD360008FD360008FD360008FD360008C4
:10005000FD360008FD360008D5300008E9300008FC
:10006000FD30000811310008FD360008FD3600089B
:10007000FD360008FD36000825310008353100083E
:10008000FD360008FD360008FD360008FD36000884
:10009000FD360008FD360008FD360008FD36000874
:1000A000FD360008FD360008FD360008FD36000864
:1000B000FD36000845310008FD360008FD36000811
:1000C000FD360008FD360008FD360008FD36000844
:1000D000FD360008F5310008FD360008FD36000841
:1000E000FD360008FD360008FD360008FD36000824
:1000F000FD360008FD360008FD360008FD36000814
:10010000FD360008FD360008FD360008FD36000803
:10011000FD360008FD360008FD360008FD360008F3
:10012000FD360008FD360008FD360008FD360008E3
:1001300000000000000000000000000000000000BF
:1001400000000000000000000000000000000000AF
:10015000000000000000000000000000000000009F
:10016000000000000000000000000000000000008F
:10017000000000000000000000000000000000007F
:10018000000000000000000000000000000000006F
:10019000000000000000000000000000000000005F
:1001A000000000000000000000000000000000004F
:1001B000000000000000000000000000000000003F
:1001C000000000000000000000000000000000002F
:1001D000000000000000000000000000000000001F
:0401E0005FF8E0F1F3
:1001E80010B5054C237833B9044B13B10448AFF369
:1001F80000800123237010BDF809002000000000D2
:10020800A897000808B5034B1BB103490348AFF38F
:10021800008008BD00000000FC090020A897000825
:10022800844641EA000313F0030349D1403A23D33B
:100238000B6803604B6843608B688360CB68C3605E
:100248000B6903614B6943618B698361CB69C36146
:100258000B6A03624B6A43628B6A8362CB6AC3622E
:100268000B6B03634B6B43638B6B8363CB6BC36316
:1002780040304031403ADBD230320BD30B68036058
:100288004B6843608B688360CB68C3601030103163
:10029800103AF3D20C3205D351F8043B40F8043B32
:1002A800043AF9D2043208D0D2071CBF11F8013B36
:1002B80000F8013B01D30B8803806046704700BFFC
:1002C800082A13D38B07B1D010F00303AED0C3F1C3
:1002D8000403D21ADB071CBF11F8013B00F8013BED
:1002E800A4D331F8023B20F8023B9FE7043AD9D364
:1002F800013A11F8013B00F8013BF9D20B78037081
:100308004B7843708B7883706046704781F000416A
:1003180002E000BF83F0004330B54FEA41044FEAE2
:10032800430594EA050F08BF90EA020F1FBF54EA7D
:10033800000C55EA020C7FEA645C7FEA655C00F019
:10034800E2804FEA5454D4EB5555B8BF6D420CDDEA
:100358002C4480EA020281EA030382EA000083EA6D
:10036800010180EA020281EA0303362D88BF30BD0D
:1003780011F0004F4FEA01314FF4801C4CEA113163
:1003880002D0404261EB410113F0004F4FEA0333C2
:100398004CEA133302D0524263EB430394EA050F4D
:1003A80000F0A780A4F10104D5F1200E0DDB02FABC
:1003B8000EFC22FA05F2801841F1000103FA0EF250
:1003C800801843FA05F359410EE0A5F120050EF116
:1003D800200E012A03FA0EFC28BF4CF0020C43FA47
:1003E80005F3C01851EBE37101F0004507D54FF054
:1003F800000EDCF1000C7EEB00006EEB0101B1F5A4
:10040800801F1BD3B1F5001F0CD349085FEA3000E9
:100418004FEA3C0C04F101044FEA445212F5800FF4
:1004280080F09A80BCF1004F08BF5FEA500C50F191
:10043800000041EB045141EA050130BD5FEA4C0C74
:10044800404141EB0101013C28BFB1F5801FE9D2D1
:1004580091F0000F04BF01460020B1FA81F308BFF4
:100468002033A3F10B03B3F120020CDA0C3208DDC0
:1004780002F1140CC2F10C0201FA0CF021FA02F19B
:100488000CE002F11402D8BFC2F1200C01FA02F10B
:1004980020FA0CFCDCBF41EA0C019040E41AA2BF30
:1004A80001EB0451294330BD6FEA04041F3C1CDAF8
:1004B8000C340EDC04F11404C4F1200220FA04F018
:1004C80001FA02F340EA030021FA04F345EA0301C2
:1004D80030BDC4F10C04C4F1200220FA02F001FA84
:1004E80004F340EA0300294630BD21FA04F0294606
:1004F80030BD94F0000F83F4801306BF81F480119F
:100508000134013D4EE77FEA645C18BF7FEA655C11
:1005180029D094EA050F08BF90EA020F05D054EAE3
:10052800000C04BF1946104630BD91EA030F1EBFE8
:100538000021002030BD5FEA545C05D140004941EC
:1005480028BF41F0004130BD14F580043CBF01F5DF
:10055800801130BD01F0004545F0FE4141F47001C5
:100568004FF0000030BD7FEA645C1ABF19461046A0
:100578007FEA655C1CBF0B46024650EA013406BFA1
:1005880052EA033591EA030F41F4002130BD00BF60
:1005980090F0000F04BF0021704730B54FF480641D
:1005A80004F132044FF000054FF0000150E700BF9E
:1005B80090F0000F04BF0021704730B54FF48064FD
:1005C80004F1320410F0004548BF40424FF00001EA
:1005D8003EE700BF42004FEAE2014FEA31014FEA2D
:1005E80002701FBF12F07F4393F07F4F81F060517C
:1005F800704732F07F4208BF704793F07F4F04BFC7
:1006080041F40021704730B54FF4607401F00045A3
:1006180021F000411CE700BF50EA010208BF704703
:1006280030B54FF000050AE050EA010208BF7047F4
:1006380030B511F0004502D5404261EB41014FF45D
:10064800806404F132045FEA915C3FF4D8AE4FF065
:1006580003025FEADC0C18BF03325FEADC0C18BF48
:10066800033202EBDC02C2F1200300FA03FC20FA99
:1006780002F001FA03FE40EA0E0021FA02F11444E6
:10068800BDE600BF70B54FF0FF0C4CF4E06C1CEAFF
:1006980011541DBF1CEA135594EA0C0F95EA0C0F70
:1006A80000F0DEF82C4481EA030621EA4C5123EAE3
:1006B8004C5350EA013518BF52EA033541F4801112
:1006C80043F4801338D0A0FB02CE4FF00005E1FBC5
:1006D80002E506F00042E0FB03E54FF00006E1FB0F
:1006E80003569CF0000F18BF4EF0010EA4F1FF0452
:1006F800B6F5007F64F5407404D25FEA4E0E6D4192
:1007080046EB060642EAC62141EA55514FEAC520A2
:1007180040EA5E504FEACE2EB4F1FD0C88BFBCF51E
:10072800E06F1ED8BEF1004F08BF5FEA500E50F1CF
:10073800000041EB045170BD06F0004646EA010195
:1007480040EA020081EA0301B4EB5C04C2BFD4EBC7
:100758000C0541EA045170BD41F480114FF0000EC0
:10076800013C00F3AB8014F1360FDEBF002001F02E
:10077800004170BDC4F10004203C35DA0C341BDCA8
:1007880004F11404C4F1200500FA05F320FA04F07A
:1007980001FA05F240EA020001F0004221F00041AE
:1007A80010EBD37021FA04F642EB06015EEA430E21
:1007B80008BF20EAD37070BDC4F10C04C4F1200551
:1007C80000FA04F320FA05F001FA04F240EA020004
:1007D80001F0004110EBD37041F100015EEA430ED5
:1007E80008BF20EAD37070BDC4F1200500FA05F2F5
:1007F8004EEA020E20FA04F301FA05F243EA020374
:1008080021FA04F001F0004121FA04F220EA020082
:1008180000EBD3705EEA430E08BF20EAD37070BDC8
:1008280094F0000F0FD101F00046400041EB0101A8
:1008380011F4801F08BF013CF7D041EA060195F08A
:10084800000F18BF704703F00046520043EB030344
:1008580013F4801F08BF013DF7D043EA0603704731
:1008680094EA0C0F0CEA135518BF95EA0C0F0CD03C
:1008780050EA410618BF52EA4306D1D181EA030182
:1008880001F000414FF0000070BD50EA410606BF7C
:100898001046194652EA430619D094EA0C0F02D1C1
:1008A80050EA013613D195EA0C0F05D152EA033606
:1008B8001CBF104619460AD181EA030101F0004124
:1008C80041F0FE4141F470014FF0000070BD41F06D
:1008D800FE4141F4780170BD70B54FF0FF0C4CF447
:1008E800E06C1CEA11541DBF1CEA135594EA0C0F66
:1008F80095EA0C0F00F0A7F8A4EB050481EA030EB3
:1009080052EA03354FEA013100F088804FEA033399
:100918004FF0805545EA131343EA12634FEA022267
:1009280045EA111545EA10654FEA00260EF0004128
:100938009D4208BF964244F1FD0404F5407402D27A
:100948005B084FEA3202B61A65EB03055B084FEA0B
:1009580032024FF480104FF4002CB6EB020E75EB08
:10096800030E22BFB61A754640EA0C005B084FEA30
:100978003202B6EB020E75EB030E22BFB61A7546AD
:1009880040EA5C005B084FEA3202B6EB020E75EBF8
:10099800030E22BFB61A754640EA9C005B084FEA70
:1009A8003202B6EB020E75EB030E22BFB61A75467D
:1009B80040EADC0055EA060E18D04FEA051545EA6C
:1009C80016754FEA06164FEAC30343EA52734FEA15
:1009D800C2025FEA1C1CC0D111F4801F0BD141EA8E
:1009E80000014FF000004FF0004CB6E711F4801FF3
:1009F80004BF01430020B4F1FD0C88BFBCF5E06FD3
:100A08003FF6AFAEB5EB030C04BFB6EB020C5FEAE2
:100A1800500C50F1000041EB045170BD0EF0004E37
:100A28004EEA113114EB5C04C2BFD4EB0C0541EA69
:100A3800045170BD41F480114FF0000E013C90E666
:100A480045EA060E8DE60CEA135594EA0C0F08BF2A
:100A580095EA0C0F3FF43BAF94EA0C0F0AD150EA29
:100A680001347FF434AF95EA0C0F7FF425AF1046BC
:100A780019462CE795EA0C0F06D152EA03353FF4E4
:100A8800FDAE1046194622E750EA410618BF52EA61
:100A980043067FF4C5AE50EA41047FF40DAF52EA35
:100AA80043057FF4EBAE12E74FF0FF3C06E000BFD2
:100AB8004FF0010C02E000BF4FF0010C4DF804CDDF
:100AC8004FEA410C7FEA6C5C4FEA430C18BF7FEA9F
:100AD8006C5C1BD001B050EA410C0CBF52EA430CCD
:100AE80091EA030F02BF90EA020F0020704710F14D
:100AF800000F91EA030F58BF994208BF90422CBFDC
:100B0800D8176FEAE37040F0010070474FEA410CD4
:100B18007FEA6C5C02D150EA013C07D14FEA430CF2
:100B28007FEA6C5CD6D152EA033CD3D05DF8040B63
:100B3800704700BF8446104662468C461946634695
:100B480000E000BF01B5FFF7B7FF002848BF10F16C
:100B5800000F01BD4DF808EDFFF7F4FF0CBF0120B1
:100B680000205DF808FB00BF4DF808EDFFF7EAFF2D
:100B780034BF012000205DF808FB00BF4DF808EDE8
:100B8800FFF7E0FF94BF012000205DF808FB00BFDD
:100B98004DF808EDFFF7CEFF94BF012000205DF867
:100BA80008FB00BF4DF808EDFFF7C4FF34BF012074
:100BB80000205DF808FB00BF4FEA410C7FEA6C5C3F
:100BC80002D150EA013C0AD14FEA430C7FEA6C5C3F
:100BD80002D152EA033C02D14FF0000070474FF0B7
:100BE800010070474FEA410212F5001215D211D5E3
:100BF8006FF47873B3EB625212D94FEAC12343F012
:100C0800004343EA505311F0004F23FA02F018BF93
:100C1800404270474FF00000704750EA013005D15C
:100C280011F0004008BF6FF0004070474FF000001F
:100C3800704700BF53B94AB9002908BF00281CBF34
:100C48004FF0FF314FF0FF3000F076B9ADF1080CEE
:100C58006DE904CE00F006F8DDF804E0DDE90223D2
:100C680004B070472DE9F047089E0D4604468846B3
:100C7800002B4DD18A42944668D9B2FA82F252B119
:100C880001FA02F3C2F1200120FA01F10CFA02FC88
:100C980041EA030894404FEA1C41B8FBF1F71FFAF8
:100CA8008CFE01FB178807FB0EF0230C43EA084370
:100CB80098420AD91CEB030307F1FF3580F01E8127
:100CC800984240F21B81023F63441B1AB3FBF1F0C8
:100CD80001FB103300FB0EFEA4B244EA0344A64510
:100CE8000AD91CEB040400F1FF3380F00981A64502
:100CF80040F20681644402380021A4EB0E0440EA65
:100D080007401EB10023D440C6E90043BDE8F08780
:100D18008B4208D9002E00F0EE800021C6E90005BC
:100D28000846BDE8F087B3FA83F100294AD1AB42FF
:100D380002D3824200F2FC80841A65EB030301208F
:100D48009846002EE2D0C6E90048DFE702B9FFDE88
:100D5800B2FA82F2002A40F09180A1EB0C00012146
:100D68004FEA1C471FFA8CFEB0FBF7F307FB130092
:100D7800250C45EA00450EFB03F0A84208D91CEBF8
:100D8800050503F1FF3802D2A84200F2CE8043469F
:100D98002D1AB5FBF7F007FB10550EFB00FEA4B2A9
:100DA80044EA0544A64508D91CEB040400F1FF35C4
:100DB80002D2A64500F2B6802846A4EB0E0440EA0B
:100DC80003409EE7C1F120078B4022FA07FC4CEA5A
:100DD800030C25FA07FA4FEA1C49BAFBF9F820FA7E
:100DE80007F309FB18AA8D401FFA8CFE1D4300FA71
:100DF80001F308FB0EF02C0C44EA0A44A04202FA64
:100E080001F20BD91CEB040408F1FF3A80F088804A
:100E1800A04240F28580A8F102086444241AB4FB79
:100E2800F9F009FB104400FB0EFEADB245EA04449C
:100E3800A64508D91CEB040400F1FF356CD2A64581
:100E48006AD90238644440EA0840A0FB0295A4EB42
:100E58000E04AC42C846AE4656D353D0002E69D0D5
:100E6800B3EB080264EB0E0422FA01F304FA07F765
:100E78001F43CC40C6E90074002147E70CFA02FC86
:100E8800C2F1200125FA01F34FEA1C4720FA01F1CB
:100E980095400D43B3FBF7F107FB11331FFA8CFEA6
:100EA800280C40EA034001FB0EF3834204FA02F4E3
:100EB80008D91CEB000001F1FF382FD283422DD94D
:100EC80002396044C01AB0FBF7F307FB1300ADB258
:100ED80045EA004503FB0EF0A84208D91CEB0505BE
:100EE80003F1FF3816D2A84214D9023B6544281AE8
:100EF80043EA014138E73146304607E72F46E4E642
:100F08001846F9E64B45A9D2B9EB020865EB0C0E79
:100F18000138A3E74346EAE7284694E74146D1E784
:100F2800D0467BE76444023847E7023B65442FE735
:100F3800084606E73146E9E6704700BF10B50446A3
:100F48000E4B18784FF47A73B3FBF0F30C4A106821
:100F5800B0FBF3F000F0A8F868B90F2C01D9012014
:100F68000AE0002221464FF0FF3000F057F8054B09
:100F78001C60002000E0012010BD00BF0000002020
:100F8800440000200400002008B5074A136843F015
:100F980010031360032000F02FF80020FFF7CEFFA6
:100FA80002F062F8002008BD00200240034A1168E0
:100FB800034B1B780B441360704700BF140A0020D2
:100FC80000000020014B1868704700BF140A002079
:100FD80038B50446FFF7F6FF0546B4F1FF3F02D0E7
:100FE800044B1B781C44FFF7EDFF401BA042FAD3CB
:100FF80038BD00BF00000020074AD36823F4E0632F
:101008001B041B0C000200F4E060034343F0BF63C1
:1010180043F40033D360704700ED00E000B5194B8E
:10102800DB68C3F30223C3F1070CBCF1040F28BF2C
:101038004FF0040C03F1040EBEF1060F18D9033B60
:101048004FF0FF3E0EFA0CFC21EA0C0199400EFA13
:1010580003F322EA0303194300280BDB0901C9B291
:1010680000F1604000F5614080F800135DF804FB72
:101078000023E5E700F00F000901C9B2024B19543B
:10108800F4E700BF00ED00E014ED00E0002807DB06
:1010980000F01F02400901239340024A42F8203021
:1010A800704700BF00E100E00138B0F1807F0BD24B
:1010B8004FF0E0235861054AF02182F82310002000
:1010C800986107221A6170470120704700ED00E01F
:1010D80030B40124056CAC40C56B6C600468636077
:1010E8004368102B05D0036899600368DA6030BC48
:1010F800704703689A600368D960F8E700283AD017
:1011080010B4024600681D4B984229D81C4B034472
:101118001C49A1FB03131B099B0013641A4BD363DF
:10112800022382F82130016821F47F5121F0300137
:10113800536894682343D468234314692343546948
:10114800234394692343D46923430B43036000205A
:101158009063012382F8213082F8200010BC704788
:101168000A4B03440749A1FB03131B099B001364A3
:10117800074BD363D4E70120704700BF0704024040
:10118800F8FFFDBFCDCCCCCC00000240F8FBFDBF82
:101198000004024038B5044690F82000012831D0F8
:1011A800012084F8200094F82100012804D00023AD
:1011B80084F82030022038BD022084F82100002065
:1011C800A0632568286820F0010028602046FFF702
:1011D8007FFFE36A5BB12268136843F00E03136074
:1011E8002268136843F0010313600020E3E72268D4
:1011F800136823F0040313602268136843F00A039A
:101208001360EDE70220D6E708B590F82130022BED
:1012180003D004238363012008BD0268136823F008
:101228000E0313600268136823F001031360036858
:101238004B4A93424ED9783A934224D0143293427F
:1012480030D0143293422FD0143293422FD014321C
:1012580093422FD0143293422FD0143293422FD07E
:1012680002F5627293422ED0143293422DD014327A
:1012780093422CD01432934202D04FF4803203E0D0
:101288004FF4805200E00122364B5A60012380F867
:101298002130002380F82030436B002B5ED0984724
:1012A8000020B9E71022EFE74FF48072ECE74FF423
:1012B8008052E9E74FF48032E6E74FF48012E3E723
:1012C8004FF08072E0E70122DEE71022DCE74FF4FE
:1012D8008072D9E7244A934224D01432934225D00D
:1012E8001432934224D01432934224D014329342BD
:1012F80024D01432934224D01432934224D002F5DD
:101308006272934223D01432934222D01432934211
:1013180021D01432934202D04FF4803203E04FF4CC
:10132800805200E00122114B5A60AFE71022FAE721
:101338004FF48072F7E74FF48052F4E74FF48032AD
:10134800F1E74FF48012EEE74FF08072EBE70122ED
:10135800E9E71022E7E74FF48072E4E700205BE753
:1013680080000240000402400800024000000240E1
:1013780038B5C36B1A6804682568016C04238B4070
:10138800134200F09B8015F0040F00F0978023684B
:1013980013F0200F03D1236823F0040323600368AC
:1013A8009A4A934246D9783A934224D014329342C7
:1013B80028D01432934227D01432934227D01432C3
:1013C800934227D01432934227D01432934227D025
:1013D80002F56272934226D01432934225D0143219
:1013E800934224D01432934202D04FF4802203E077
:1013F8004FF4804200E00422854B5A60C36A03B16F
:10140800984738BD4022F7E74FF48062F4E74FF47D
:101418008042F1E74FF48022EEE74FF48002EBE7D9
:101428004FF08062E8E70422E6E74022E4E74FF461
:101438008062E1E7774A934224D01432934225D060
:101448001432934224D01432934224D0143293425B
:1014580024D01432934224D01432934224D002F57B
:101468006272934223D01432934222D014329342B0
:1014780021D01432934202D04FF4802203E04FF47B
:10148800804200E00422644B5A60B7E74022FAE742
:101498004FF48062F7E74FF48042F4E74FF480227C
:1014A800F1E74FF48002EEE74FF08062EBE70422A9
:1014B800E9E74022E7E74FF48062E4E702238B4044
:1014C800134200F0AB8015F0020F00F0A7802368EC
:1014D80013F0200F06D1236823F00A0323600123A9
:1014E80080F821300368494A93424BD9783A9342AD
:1014F80024D0143293422DD0143293422CD014327B
:1015080093422CD0143293422CD0143293422CD0D4
:10151800143293422CD002F5627293422BD01432CB
:1015280093422AD01432934229D01432934202D0E3
:101538004FF4003203E04FF4005200E00222344B33
:101548005A60002380F82030836A002B3FF459AF9B
:10155800984756E72022F2E74FF40072EFE74FF47E
:101568000052ECE74FF40032E9E74FF40012E6E7E7
:101578004FF00072E3E70222E1E72022DFE74FF4B1
:101588000072DCE7234A934224D01432934225D0D8
:101598001432934224D01432934224D0143293420A
:1015A80024D01432934224D01432934224D002F52A
:1015B8006272934223D01432934222D0143293425F
:1015C80021D01432934202D04FF4003203E04FF49A
:1015D800005200E00222104B5A60B2E72022FAE7DC
:1015E8004FF40072F7E74FF40052F4E74FF400327B
:1015F800F1E74FF40012EEE74FF00072EBE702223A
:10160800E9E72022E7E74FF40072E4E780000240B0
:10161800000402400800024000000240082303FAC8
:1016280001F111423FF4EDAE15F0080F3FF4E9AEB9
:10163800236823F00E032360026CC16B012303FAB5
:1016480002F24A60836380F82130002380F820305A
:10165800036B002B3FF4D5AE9847D2E670B582B045
:101668000024A446B0E0874DAA4210D007D9864D81
:10167800AA420CD005F58035AA4208D013E0A5F59A
:101688008015AA4203D005F57025AA4207D18A68B9
:10169800002A62D0012A5BD04361082403E0A5F543
:1016A8008015AA42F3D0BEF1FF0F58D80646BEF106
:1016B800FF0F56D84FEA8C0233680F25954023EA6E
:1016C800050304FA02F2134333604B6813F0805F9A
:1016D80078D06E4B9A6942F001029A619B6903F0D7
:1016E80001030193019B4FEA9C02951C684B53F838
:1016F80025600CF003039D000F23AB4026EA030688
:10170800644B984233D003F58063984200F0988088
:1017180003F58063984200F0958003F58063984252
:1017280000F0928003F58063984200F08F8003F503
:101738008063984219D006231AE0CC68B3E7CC68D6
:101748000434B0E7CC680834ADE7CC680C34AAE7B9
:1017580003610824A7E70024A5E70424A3E7061DDE
:10176800A5E7ACF108029200A6E7052300E00023F4
:10177800AB4033430232464D45F822304B6813F4F0
:10178800803F65D0444A136843EA0E0313604B68F0
:1017980013F4003F62D0404A536843EA0E03536093
:1017A8004B6813F4801F5FD03B4A936843EA0E03EB
:1017B80093604B6813F4001F5CD0374AD36843EA40
:1017C8000E03D3600CF1010C0A6832FA0CF357D0FF
:1017D800012303FA0CF302EA030E33EA0202F1D101
:1017E8004A68122A3FF63FAF122A3FF65CAF01A5BE
:1017F80055F822F097160008431700084D170008FF
:101808005F170008AF160008AF160008AF160008EB
:10181800AF160008AF160008AF160008AF1600088C
:10182800AF160008AF160008AF160008AF1600087C
:10183800AF160008AF16000847170008531700082E
:10184800012395E7022393E7032391E704238FE716
:10185800114A136823EA0E03136098E70E4A536887
:1018680023EA0E0353609BE70B4A936823EA0E03AF
:1018780093609EE7084AD36823EA0E03D360A1E782
:1018880002B070BD000022100000311000100240AC
:101898000000014000080140000401400AB1016154
:1018A80070470904016170477047000008B5054B8F
:1018B8005B69034200D108BD024B5861FFF7F4FF92
:1018C800F9E700BF0004014082B0084B1B68084AD2
:1018D800A2FB03235B0A00FB03F3019300BF019BF8
:1018E8005A1E0192002BF9D102B070474400002023
:1018F800D34D6210002800F0F18170B582B0044623
:10190800036813F0010F2CD0994B5B6803F00C03AC
:10191800042B1DD0964B5B6803F00C03082B12D0E8
:101928006368B3F5803F41D0002B55D103F1804364
:1019380003F504331A6822F480321A601A6822F414
:1019480080221A6037E08A4B5B6813F4803FE7D047
:10195800874B1B6813F4003F03D06368002B00F02B
:10196800BF81236813F0020F75D0814B5B6813F0B9
:101978000C0F5FD07E4B5B6803F00C03082B54D030
:101988002369002B00F08A807A4B01221A60FFF746
:1019980019FB0546764B1B6813F0020F75D1FFF74C
:1019A80011FB401B0228F5D903209EE1704A1368F9
:1019B80043F480331360636843B3FFF703FB0546C2
:1019C8006B4B1B6813F4003FCBD1FFF7FBFA401BAE
:1019D8006428F5D9032088E1B3F5A02F09D0644B1A
:1019E8001A6822F480321A601A6822F480221A6077
:1019F800E1E703F18043A3F53C331A6842F48022FF
:101A08001A601A6842F480321A60D4E7FFF7DAFAEB
:101A18000546574B1B6813F4003FA2D0FFF7D2FAD4
:101A2800401B6428F5D903205FE1514B5B6813F430
:101A3800803FA5D14E4B1B6813F0020F03D02369DA
:101A4800012B40F04F814A4A136823F0F80361697B
:101A580043EAC1031360236813F0080F33D0A36966
:101A6800002B5CD0434B0122C3F88024FFF7AAFA6D
:101A780005463F4B5B6A13F0020F21D1FFF7A2FA2C
:101A8800401B0228F5D903202FE1394A136823F0B7
:101A9800F803616943EAC1031360DCE7354B0022B0
:101AA8001A60FFF78FFA0546314B1B6813F0020FD7
:101AB800D1D0FFF787FA401B0228F5D9032014E19B
:101AC8000120FFF701FF236813F0040F00F0968050
:101AD800274BDB6913F0805F34D1254BDA6942F07C
:101AE8008052DA61DB6903F080530193019B012581
:101AF800214B1B6813F4807F26D0E368012B3DD06F
:101B0800002B53D103F1804303F504331A6A22F002
:101B180001021A621A6A22F004021A6233E0154BB3
:101B28000022C3F88024FFF74DFA0546104B5B6A84
:101B380013F0020FC7D0FFF745FA401B0228F5D96A
:101B48000320D2E00025D3E70B4A136843F48073DF
:101B58001360FFF737FA0646074B1B6813F4807FBC
:101B6800CBD1FFF72FFA801B6428F5D90320BCE0FE
:101B78000010024000004242007000405F4A136AB1
:101B880043F001031362E36833B3FFF71BFA064619
:101B98005A4B1B6A13F0020F2FD1FFF713FA801B61
:101BA80041F288339842F3D903209EE0052B09D0EF
:101BB800524B1A6A22F001021A621A6A22F00402CF
:101BC8001A62E0E74D4B1A6A42F004021A621A6A76
:101BD80042F001021A62D6E7FFF7F4F90646474BCE
:101BE8001B6A13F0020F08D0FFF7ECF9801B41F2D3
:101BF80088339842F3D9032077E0E5B9E369002BED
:101C080072D03E4A526802F00C02082A56D0022BC3
:101C180017D03B4B00221A66FFF7D4F90446374B1E
:101C28001B6813F0007F47D0FFF7CCF9001B022890
:101C3800F5D9032059E0314AD36923F08053D361A1
:101C4800DCE72F4B00221A66FFF7BCF905462B4B41
:101C58001B6813F0007F06D0FFF7B4F9401B022879
:101C6800F5D9032041E0236AB3F5803F1AD0234910
:101C78004B6823F47413226A606A024313434B606F
:101C88001F4B01221A66FFF79DF904461B4B1B6880
:101C980013F0007F0ED1FFF795F9001B0228F5D944
:101CA800032022E0154A536823F40033A1680B434C
:101CB8005360DCE7002018E0002016E0012B16D066
:101CC8000E4B5B6803F48031226A914211D103F410
:101CD8007013626A93420ED1002006E0012070471B
:101CE800012002E0012000E0002002B070BD0120C8
:101CF800FBE70120F9E70120F7E700BF00100240E9
:101D08000000424286B0174B0FCB0DF1180C0CE9BE
:101D18000F0040F20123ADF80430134B5B6803F069
:101D28000C02082A02D0114806B07047C3F3834258
:101D380018326A4412F8100C13F4803F0DD00A4B85
:101D48005B68C3F3404318336B4413F8143C074AE9
:101D580002FB00F0B0FBF3F0E6E7054B03FB00F0F5
:101D6800E2E700BFC09700080010024000127A00A6
:101D780000093D00002800F0A08070B50D4604461B
:101D8800524B1B6803F007038B420BD24F4A136870
:101D980023F007030B431360136803F007038B4218
:101DA80040F08D80236813F0020F17D013F0040F52
:101DB80004D0474A536843F4E0635360236813F040
:101DC800080F04D0424A536843F460535360404AB2
:101DD800536823F0F003A1680B435360236813F0A2
:101DE800010F31D06368012B20D0022B25D0384A4F
:101DF800126812F0020F64D035494A6822F00302D3
:101E080013434B60FFF7DEF80646314B5B6803F07F
:101E18000C036268B3EB820F16D0FFF7D3F8801B70
:101E280041F288339842F0D9032045E0284A1268E5
:101E380012F4003FE0D101203EE0254A126812F07A
:101E4800007FD9D1012037E0204B1B6803F007033E
:101E5800AB420AD91D4A136823F007032B431360CA
:101E6800136803F00703AB422DD1236813F0040F66
:101E780006D0174A536823F4E063E1680B435360C4
:101E8800236813F0080F07D0114A536823F46053EE
:101E9800216943EAC1035360FFF734FF0C4B5B68C9
:101EA800C3F303130B4AD35CD8400B4B18600B4B9E
:101EB8001868FFF743F8002070BD01207047012023
:101EC800FAE70120F8E70120F6E700BF002002400A
:101ED800001002403498000844000020040000204C
:101EE800014B1868704700BF4400002008B5FFF791
:101EF800F7FF044B5B68C3F30223034AD35CD84063
:101F080008BD00BF001002404498000808B5FFF75C
:101F1800E7FF044B5B68C3F3C223034AD35CD84092
:101F280008BD00BF001002404498000830B4036A9E
:101F380023F001030362036A4268846924F073048E
:101F48000D682C4323F0020C8B6843EA0C03104DF8
:101F5800A84203D005F50065A84205D123F008037F
:101F6800CD682B4323F00403094DA84203D005F59F
:101F78000065A84205D122F440724D692A438D6953
:101F88002A43426084614A684263036230BC7047F6
:101F9800002C014030B4036A23F480730362036A9F
:101FA8004268C46924F0730C0C6844EA0C0523F4F5
:101FB80000738C6843EA0423114CA04203D004F553
:101FC8000064A04206D123F40063CC6843EA0423EA
:101FD80023F480630A4CA04203D004F50064A042B5
:101FE80007D122F440524C6942EA04128C6942EA51
:101FF80004124260C5614A68C263036230BC70471C
:10200800002C014030B4036A23F480530362036A4E
:102018004468C26922F4E6420D6842EA052223F4C4
:1020280000538D6843EA0533094DA84203D005F5EE
:102038000065A84204D124F480444D6944EA85141B
:102048004460C2614A680264036230BC704700BFE2
:10205800002C014010B4036A046A24F001040462ED
:10206800846924F0F00C4CEA021223F00A030B43B3
:102078008261036210BC704710B4046A24F0100433
:1020880004628469036A24F4704C4CEA023223F037
:10209800A00343EA01138261036210BC704783689E
:1020A80023F070030B4343F0070383607047026813
:1020B800D36843F00103D3600268936803F0070311
:1020C800062B03D0136843F0010313600020704708
:1020D80070477047704770477047704710B504469F
:1020E80003681A6912F0020F11D0DA6812F0020FB1
:1020F8000DD06FF002021A610123037703689B6910
:1021080013F0030F70D0FFF7E6FF0023237723684F
:102118001A6912F0040F12D0DA6812F0040F0ED008
:102128006FF004021A610223237723689B6913F472
:10213800407F5FD02046FFF7CEFF00232377236838
:102148001A6912F0080F12D0DA6812F0080F0ED0D0
:102158006FF008021A61042323772368DB6913F000
:10216800030F4ED02046FFF7B6FF002323772368DE
:102178001A6912F0100F12D0DA6812F0100F0ED090
:102188006FF010021A61082323772368DB6913F4C0
:10219800407F3DD02046FFF79EFF0023237723682A
:1021A8001A6912F0010F03D0DA6812F0010F36D164
:1021B80023681A6912F0800F03D0DA6812F0800FD2
:1021C80034D123681A6912F0400F03D0DA6812F08C
:1021D800400F32D123681A6912F0200F03D0DA6851
:1021E80012F0200F30D110BDFFF774FF2046FFF723
:1021F80073FF8AE72046FFF76DFF2046FFF76CFF65
:102208009BE72046FFF766FF2046FFF765FFACE730
:102218002046FFF75FFF2046FFF75EFFBDE76FF040
:1022280001021A612046FFF754FFC1E76FF08002F0
:102238001A61204600F037FAC3E76FF040021A61CE
:102248002046FFF74AFFC5E76FF020021A612046D3
:1022580000F028FAC7E700000368244A904212D029
:1022680002F5006290420ED0B0F1804F0BD0A2F57B
:102278009832904207D002F58062904203D002F56E
:102288008062904203D123F070034A681343174ACF
:10229800904212D002F5006290420ED0B0F1804F09
:1022A8000BD0A2F59832904207D002F58062904296
:1022B80003D002F58062904203D123F44073CA68C8
:1022C800134323F080034A69134303608B68C36296
:1022D8000B688362054B984203D003F5006398426C
:1022E80001D10B690363012343617047002C01404E
:1022F800B0B110B5044690F83D3063B1022384F8BC
:102308003D30214651F8040BFFF7A6FF012384F85E
:102318003D30002010BD80F83C3001F005F8EDE7B5
:1023280001207047B0B110B5044690F83D3063B154
:10233800022384F83D30214651F8040BFFF78CFF47
:10234800012384F83D30002010BD80F83C30FFF7B1
:10235800BFFEEDE70120704730B4036A23F0100395
:102368000362036A4468826922F4E6420D6842EA1D
:10237800052223F020038D6843EA0513114DA84276
:1023880003D005F50065A84206D123F08003CD6887
:1023980043EA051323F040030A4DA84203D005F58C
:1023A8000065A84207D124F440644D6944EA8504D5
:1023B8008D6944EA8504446082614A6882630362E5
:1023C80030BC7047002C014038B590F83C30012BE8
:1023D80066D004460D46012380F83C30022380F87D
:1023E8003D300C2A1AD8DFE802F00719191920190C
:1023F80019193419191947000068FFF797FD226861
:10240800936943F0080393612268936923F00403F6
:1024180093612268936929690B439361012384F8C6
:102428003D30002084F83C0038BD0068FFF794FF79
:102438002268936943F4006393612268936923F4E3
:102448008063936122689369296943EA0123936150
:10245800E4E70068FFF79EFD2268D36943F00803AC
:10246800D3612268D36923F00403D3612268D36956
:1024780029690B43D361D1E70068FFF7C3FD2268E0
:10248800D36943F40063D3612268D36923F480637A
:10249800D3612268D369296943EA0123D361BDE77F
:1024A8000220C1E710B4846824F47F4C42EA032276
:1024B8000A4342EA0C02826010BC704790F83C3034
:1024C800012B66D010B50446012380F83C30022366
:1024D80080F83D300268936823F47F4323F0770344
:1024E80093600B68602B40D022D8402B47D00BD983
:1024F800502B0ED1CA6849680068FFF7ABFD502120
:102508002068FFF7CCFD04E0202B0CD008D9302B35
:1025180009D0012384F83D30002084F83C0010BD28
:102528000BB1102BF5D119462068FFF7B8FDF0E77D
:10253800702B0ED0B3F5005FEBD1CB684A68896881
:102548000068FFF7AFFF2268936843F48043936005
:10255800DFE7CB684A6889680068FFF7A3FF22684D
:10256800936843F077039360D3E7CA6849680068C3
:10257800FFF782FD60212068FFF791FDC9E7CA686F
:1025880049680068FFF766FD40212068FFF787FD6E
:10259800BFE70220704701F01F01012303FA01FC85
:1025A800036A23EA0C030362036A02FA01F10B438C
:1025B8000362704710B5044601220068FFF7EBFF7D
:1025C80023680B4A934203D002F50062934203D179
:1025D8005A6C42F400425A642268936803F0070375
:1025E800062B03D0136843F001031360002010BDCD
:1025F800002C014010B5044600220068FFF7CBFF0D
:102608002368154A934217D002F50062934213D00B
:102618002368196A41F21112114208D1196A40F26D
:102628004442114203D11A6822F001021A600123C0
:1026380084F83D30002010BD196A41F21112114290
:10264800E6D1196A40F244421142E1D15A6C22F4AF
:1026580000425A64DCE700BF002C014090F83C308F
:10266800012B1DD030B54FF0010E80F83CE002235D
:1026780080F83D3002685468936824F070040D684F
:102688002C4323F0800C4B6843EA0C035460026827
:10269800936080F83DE0002380F83C30184630BD58
:1026A80002207047704770470268D36823F0C00360
:1026B800D360202380F8393070470268D36823F448
:1026C8009073D3600268536923F001035361202398
:1026D80080F83A30704790F83930DBB2212B01D0BE
:1026E800022070478368B3F5805F17D0036A5A1CCD
:1026F80002621A7803685A60C38C9BB2013B9BB292
:10270800C3844BB90268D36823F08003D36002689E
:10271800D36843F04003D36000207047036A1B88E6
:102728000268C3F30803536003691BB9036A0233E1
:102738000362E1E7036A01330362DDE738B5044663
:102748000268136923F44053C1680B43136183681B
:102758000269134342691A430168CB6823F4B053F2
:1027680023F00C031343CB600268536923F44073CE
:1027780081690B4353610268214B9A421FD0FFF7CE
:10278800B5FB00EB800202EB820263689B00B2FBA0
:10279800F3F21C48A0FB02314909642303FB11230F
:1027A8001B013233A0FB03235B0903F0F00202EBA9
:1027B800011203F00F03216813448B6038BDFFF743
:1027C800A5FB00EB800000EB800063689B00B0FB7A
:1027D800F3F00C4DA5FB00325109642303FB1103F0
:1027E8001B013233A5FB03235B0903F0F00202EB64
:1027F800011203F00F03216813448B60DEE700BF6A
:10280800003801401F85EB5158B310B5044690F8C5
:1028180039300BB3242384F839302268D36823F481
:102828000053D3602046FFF789FF2268136923F419
:10283800904313612268536923F02A035361226885
:10284800D36843F40053D3600020E063202384F866
:10285800393084F83A3010BD80F8383000F08EFEF8
:10286800D8E701207047000038B590F83930DBB25E
:10287800202B31D10446002930D0002A30D090F8DE
:102888003830012B2ED0012380F838300162828441
:10289800C2840025C563212380F83930036B1248B0
:1028A8009862236B1148D862236B11481863236B15
:1028B8005D6320681346021D206BFEF76BFC2368DE
:1028C8006FF040021A6084F838502268536943F068
:1028D80080035361284600E0022038BD0120FCE750
:1028E8000120FAE70220F8E7A7290008F3290008E1
:1028F800E92A000830B583B0044690F83A00C0B21F
:1029080020283CD100293DD0002A3DD094F8383009
:10291800012B3BD0012384F83830A162A285002521
:10292800E563222384F83A30636B19489862636B35
:102938001848D862636B18481863636B5D63206836
:1029480013460A46011D606BFEF724FC01952368B7
:102958001A6801925A680192019A84F83850DA6824
:1029680042F48072DA602268536943F001035361CC
:102978002268536943F040035361284600E002206F
:1029880003B030BD0120FBE70120F9E70220F7E79B
:10299800FF290008DD2A0008E92A0008704708B561
:1029A8000346406A1B681B6813F0200F0CD10023F4
:1029B800C3840268536923F0800353610268D368B3
:1029C80043F04003D36008BDFFF7E8FFFBE708B515
:1029D8000168CA6822F04002CA60202280F83920C3
:1029E800FFF7DCFF002008BD704708B5406AFFF715
:1029F800FBFF08BD704708B50346406A1B681B68A3
:102A080013F0200F13D10023C3850268D36823F481
:102A18008073D3600268536923F00103536102682D
:102A2800536923F040035361202380F83A30FFF7BD
:102A3800E1FF08BD08B590F83A30DBB2222B46D149
:102A48008368B3F5805F0FD003690BBB03685A68CE
:102A5800836A591C81621A70C38D9BB2013B9BB279
:102A6800C385F3B1002008BD826A036943B90368CE
:102A78005B68C3F308031380836A02338362EBE75E
:102A880003685B68DBB21380836A01338362E3E720
:102A980003685B68826A511C816203F07F031370CC
:102AA800DAE70268D36823F02003D3600268D368AA
:102AB80023F48073D3600268536923F001035361E0
:102AC800202380F83A30FFF795FF0020CBE702205B
:102AD800C9E7704708B5406AFFF7FBFF08BD7047B4
:102AE80010B5446A23685A6994F83930DBB2212B4F
:102AF80010D023685A6902F0400294F83A30DBB2E9
:102B0800222B11D0E36B43F01003E3632046FFF759
:102B1800E6FF10BD02F08002002AEAD00023E38419
:102B28002046FFF7C1FDE4E7002AEBD00023E38548
:102B38002046FFF7C2FDE5E710B5044602681368B2
:102B4800D168526913F00F0005D113F0200F02D09D
:102B580011F0200F13D128B112F0010213D111F492
:102B6800907F10D113F0800F02D011F0800F69D13F
:102B780013F0400F02D011F0400F67D110BD20466E
:102B8800FFF758FFFAE713F0010F06D011F4807F22
:102B980003D0E06B40F00100E06313F0040F04D0B1
:102BA8001AB1E06B40F00200E06313F0020F04D0AA
:102BB8001AB1E06B40F00400E06313F0080F04D092
:102BC8001AB1E26B42F00802E263E26B002AD5D048
:102BD80013F0200F02D011F0200F21D123685B6978
:102BE80003F04003E26B12F0080F00D123B3204634
:102BF800FFF763FD23685A6912F0400F18D05A692D
:102C080022F040025A61636B73B1124A5A63606BD7
:102C1800FEF7FAFA0028B1D0606B436B9847ADE72E
:102C28002046FFF707FFD9E72046FFF758FFA5E73B
:102C38002046FFF754FFA1E72046FFF750FF002387
:102C4800E3639BE72046FFF746FD97E72046FFF73B
:102C5800BEFE93E7612C000808B5406A0023C385CF
:102C6800C384FFF73CFF08BD00B583B00E4B5A691B
:102C780042F001025A615B6903F001030193019B71
:102C8800012211460E20FEF7C9F90E20FEF7FEF9C3
:102C9800012211460F20FEF7C1F90F20FEF7F6F9C1
:102CA80003B05DF804FB00BF0010024070B588B0A7
:102CB800002504950595069507952C4B9A6942F0D1
:102CC80040029A619A6902F040020192019A9A6957
:102CD80042F010029A619A6902F010020292029A76
:102CE8009A6942F004029A619B6903F00403039312
:102CF800039B1F4E2A46FF213046FEF7CFFDFF23D8
:102D080004930123059306950224079404A93046E9
:102D1800FEF7A4FC0F230493164B0593069504A90C
:102D28001548FEF79BFC224621460620FEF776F959
:102D38000620FEF7ABF9224621460720FEF76EF97A
:102D48000720FEF7A3F9224621460820FEF766F978
:102D58000820FEF79BF9224621460920FEF75EF976
:102D68000920FEF793F908B070BD00BF00100240BB
:102D780000180140000021100010014010B5154C4A
:102D8800002201212046FEF789FD0022022120466B
:102D9800FEF784FD012204212046FEF77FFD002274
:102DA80008212046FEF77AFD002210212046FEF772
:102DB80075FD012220212046FEF770FD00224021EA
:102DC8002046FEF76BFD002280212046FEF766FDB7
:102DD80010BD00BF0018014038B5284C00224FF63E
:102DE800FF712046FEF75AFD4FF4FA7000F042FBDF
:102DF800234D012229882046FEF750FD4FF4FA7032
:102E080000F038FB012269882046FEF747FD4FF4A1
:102E1800FA7000F02FFB0122A9882046FEF73EFD3C
:102E28004FF4FA7000F026FB0122E9882046FEF7ED
:102E380035FD4FF4FA6000F01DFB0022E9882046BA
:102E4800FEF72CFD4FF47A7000F014FB0022A988DD
:102E58002046FEF723FD4FF47A7000F00BFB0022AA
:102E680069882046FEF71AFD4FF47A7000F002FBDD
:102E7800002229882046FEF711FD38BD00180140C0
:102E88000800002038B52F4D2F4C012229882046F4
:102E9800FEF704FD2D4800F0EDFB4FF4FA7000F04A
:102EA800E9FA012269882046FEF7F8FC284800F074
:102EB800E1FB4FF4FA7000F0DDFA0122A988204600
:102EC800FEF7ECFC234800F0D5FB4FF4FA7000F055
:102ED800D1FA0122E9882046FEF7E0FC1E4800F0FE
:102EE800C9FB4FF4FA6000F0C5FA0022E9882046D1
:102EF800FEF7D4FC194800F0BDFB4FF47A7000F0DF
:102F0800B9FA0022A9882046FEF7C8FC144800F048
:102F1800B1FB4FF47A7000F0ADFA002269882046C0
:102F2800FEF7BCFC0F4800F0A5FB4FF47A7000F0E8
:102F3800A1FA002229882046FEF7B0FC0A4800F0D2
:102F480099FB38BD0800002000180140D4970008FC
:102F5800E0970008EC970008F89700080498000824
:102F6800109800081C9800082898000872B6FEE718
:102F780000B591B02822002106A800F01BFC002310
:102F880001930293039304930593012206924FF44D
:102F9800803307930A9202220D920E934FF4E013A6
:102FA8000F9306A8FEF7A6FC80B90F230193022110
:102FB8000291002303934FF480620492059301A8C1
:102FC800FEF7D8FE20B911B05DF804FBFFF7CEFF7D
:102FD800FFF7CCFF00B583B0FDF7D6FFFFF7C8FFBA
:102FE800FFF764FEFFF740FE00F0EEF900F0ACFAE0
:102FF80000230193174803681A6801925A680192DE
:10300800019ADA6842F01002DA6064221249FFF786
:1030180071FC1248FFF74BF804E0FFF7AFFE104BC6
:1030280000221A700E4B1B78012BF6D0022B02D00F
:1030380000F044FAF6E70B4B1B7843B1FFF722FF89
:10304800084B00221A70064B00221A70EAE7FFF7B5
:10305800C3FEF8E71C0C00201C0A00208C0A002084
:10306800180A0020840A002000B583B00F4B9A6923
:1030780042F001029A619A6902F001020092009AF4
:10308800DA6942F08052DA61DB6903F08053019318
:10309800019B0520FDF7B0FF054A536823F0E06364
:1030A80043F00073536003B05DF804FB0010024066
:1030B80000000140FEE7FEE7FEE7FEE7FEE7704797
:1030C8007047704708B5FDF771FF08BD08B50120C6
:1030D800024B1870FEF7EAFB08BD00BF180A002073
:1030E80008B50220024B1870FEF7E0FB08BD00BFD0
:1030F800180A002008B5034B03221A700420FEF7B3
:10310800D5FB08BD180A002008B5034B04221A7025
:103118000820FEF7CBFB08BD180A002008B50248B6
:10312800FEF726F908BD00BFD80B002008B50248F5
:10313800FEF71EF908BD00BF940B002008B5044A2D
:103148001368013313600348FEF7C8FF08BD00BFCA
:10315800800A00208C0A002038B51C4B984200D009
:1031680038BD04461A4A11680B6823F001030B6046
:1031780013685D68C5F16405EDB2164B1D702A46EB
:103188001549164800F0E2FA80B9154B01221A7069
:10319800104B00221A700E4B1B6864225A60636B36
:1031A8001A68136843F001031360D9E72A460D49EA
:1031B8000A4800F0CBFA18B9094B01225A70E7E720
:1031C800212209490148FFF74FFBE1E71C0C0020C9
:1031D800940B0020190A0020100000201C0A00206F
:1031E800840A0020180000202000002010B582B0BA
:1031F8000A4C2046FFF7A0FC23681A6812F0100F4B
:1032080001D102B010BD002201921A6801925B68D8
:103218000193019B2046FFF79FFFF2E71C0C00205B
:103228000120704708B500F067FA162303604FF0D5
:10323800FF3008BD08B54FF0FF31FFF7F3FFFEE799
:1032480070B50C461646002506E0AFF3008021460F
:1032580001F8010B01350C46B542F6DB304670BD6E
:1032680070B50C461646002504E014F8010BAFF3C0
:1032780000800135B542F8DB304670BD4FF0FF30B5
:1032880070474FF400534B6000207047012070478F
:103298000020704710B503460C4A0D490D480068D8
:1032A80040B10C4800680344521A934206D8094AB0
:1032B800136010BD0748084C0460F2E700F01CFAE0
:1032C8000C2303604FF0FF30F3E700BF00C000207D
:1032D80000040000880A0020A80C00200F4B1A6880
:1032E80042F001021A6059680D4A0A405A601A6889
:1032F80022F0847222F480321A601A6822F4802242
:103308001A605A6822F4FE025A604FF41F029A604B
:10331800044B4FF000629A60704700BF00100240F3
:103328000000FFF800ED00E002680E4B9A4200D062
:10333800704700B583B003F50333DA6942F002023F
:10334800DA61DB6903F002030193019B0322114652
:103358001D20FDF763FE1D20FDF798FE03B05DF804
:1033680004FB00BF0004004000B587B000230293AF
:103378000393049305930268104B9A4202D007B056
:103388005DF804FB03F503339A6942F010029A6171
:103398009B6903F010030193019B402302930223CE
:1033A8000393059302A90648FEF758F9054A53689E
:1033B80043F0E06343F440635360E0E700040040F7
:1033C800001001400000014000B58FB000230A93AF
:1033D8000B930C930D930893099301930293039312
:1033E80004930593069307932048214A02604722D5
:1033F8004260836040F2E732C26003618361FEF796
:1034080077FF20BB4FF480530A930AA91748FFF7A8
:1034180055F8F8B91548FEF785FFF0B90023089369
:10342800099308A91148FFF719F9C8B9602301934E
:10343800002202920392059201A90C48FEF7C4FFEC
:1034480088B90A48FFF790FF0FB05DF804FBFFF753
:103458008DFDD7E7FFF78AFDDCE7FFF787FDDDE79E
:10346800FFF784FDE2E7FFF781FDEAE78C0A002019
:10347800000400400F4B1B6800225A621A6842F091
:1034880001021A600C4B1B688342FBD30A4B0022D3
:103498001A60084B1B68196A41F21112114208D1CF
:1034A800196A40F24442114203D11A6822F001021B
:1034B8001A6070478C0A0020800A002038B5204B1B
:1034C8005B78002B3AD01F4A136842F20F71D96219
:1034D800D16041F288325A63002522E0194C2368F2
:1034E80043F63F029A6200212046FFF763F84FF443
:1034F800FA60FDF76DFD00212046FFF77BF8236891
:1035080041F61F429A6200212046FFF753F84FF414
:10351800FA60FDF75DFD00212046FFF76BF80135E5
:10352800EDB2022DDAD9064B00225A70054A13680B
:1035380040F2E731D962D16047229A6238BD00BFB4
:10354800840A00208C0A002008B50A480A4B036048
:103558004FF4E133436000238360C36003610C22AE
:1035680042618361C361FFF74FF900B908BDFFF7F6
:10357800FDFCFBE71C0C00200038014070B586B04C
:10358800002302930393049305930268334B9A42F2
:1035980001D006B070BD044603F558439A6942F459
:1035A80080429A619A6902F480420092009A9A696C
:1035B80042F004029A619B6903F004030193019BA2
:1035C8004FF4007302930223039303230593244EBD
:1035D80002A93046FEF742F84FF4806302930025B3
:1035E8000395049502A93046FEF738F81D481E4B8E
:1035F8000360456085608023C3600561456185611E
:103608004FF48053C361FDF779FD00BB154B63632D
:103618005C621648164B03601023436000238360E6
:103628008022C2600361436183614FF48053C361A8
:10363800FDF764FD70B90D4B23635C6202221146ED
:103648002520FDF7EBFC2520FDF720FDA1E7FFF77E
:103658008DFCDBE7FFF78AFCEDE700BF003801408F
:1036680000080140940B002058000240D80B0020AD
:10367800440002400FB430B583B006AB53F8042BB6
:103688000193084DC921284600F0E6F8044682B2A5
:1036980029460548FFF7E8F8204603B0BDE8304062
:1036A80004B07047CC0A00201C0C0020002103E065
:1036B8000B4B5B58435004310A480B4B42189A4253
:1036C800F6D30A4A02E0002342F8043B084B9A4228
:1036D800F9D3FFF703FE00F015F8FFF77BFC7047FE
:1036E8005C9C000800000020F8090020F809002070
:1036F800A40C0020FEE70000014B1868704700BFCB
:103708004800002070B50D4E0D4D761BB61006D042
:10371800002455F8043B01349847A642F9D1094ED4
:10372800094D06F03DF8761BB61006D0002455F872
:10373800043B01349847A642F9D170BD509C00085B
:10374800509C0008589C0008509C0008032A10B59B
:1037580016D940EA010C1CF0030F04460B4622D18F
:1037680019462046D1F800E0D0F800C00433F445EB
:1037780004F1040417D1043A032A20461946EFD865
:10378800541EA2B100F1FF3C013901E0C3180CD06E
:103798001CF801EF11F8012FA4EB0C039645F5D0A6
:1037A800AEEB020010BD541EECE7184610BD1046E3
:1037B80010BD00BF830730B548D0541E002A3FD043
:1037C8000346CAB201E0013C3AD303F8012B9D0736
:1037D800F9D1032C2DD9CDB245EA05250F2C45EAA0
:1037E800054536D9A4F1100222F00F0C03F1200E82
:1037F800E6444FEA121C03F1100242E9045542E97B
:10380800025510327245F8D10CF1010214F00C0F78
:1038180003EB021204F00F0C13D0ACF1040323F0F5
:1038280003030433134442F8045B9342FBD10CF0C6
:1038380003042CB1CAB21C4403F8012B9C42FBD1EF
:1038480030BD64461346002CF4D1F9E7034614460C
:10385800BFE71A46A446E0E710B5194C00292468CA
:103868009AB028DB009004904FF402704FF6FF7C6A
:10387800ADF80C0011D00139029105912046694636
:10388800ADF80EC000F04CF8421C01DA8B2323601F
:103898000022009B1A701AB010BD029105912046B3
:1038A8006946ADF80EC000F03BF8431C01DA8B23E3
:1038B80023601AB010BD8B234FF0FF302360F8E768
:1038C80048000020024B13B1024800F005B87047C9
:1038D80000000000ED380008002301461A4618468B
:1038E80001F070BD38B5084B084D5B1B9C1007D024
:1038F800043B1D44013C55F804399847002CF9D184
:10390800BDE8384005F052BF5C9C0008589C000890
:10391800704700BF704700BF704700BF704700BFC7
:103928002DE9F04FD5B00C460C9191460E930A90B4
:1039380002F0DCFE03681846179303F0C9FDA3895B
:103948001690190603D52369002B00F08F870024F1
:103958002BAB224698464D46CDE92944289312942C
:1039680000230024CDE914342B78CDE91922CDE9C0
:103978001B2218920892002B00F0CE81AA4604E080
:103988001AF8013F002B00F00981252BF8D1BAEB7A
:10399800050640F007819AF80030002B00F0BC8142
:1039A80000234FF0FF324FF02B0920241F469AF8CE
:1039B800016007920AF1010A8DF8833009930AF130
:1039C800010AA6F120035A2B00F22081DFE813F048
:1039D800CA021E011E01C5021E011E011E01A3020C
:1039E8001E011E016A00F3021E014702D9021E01D0
:1039F800D4025B005B005B005B005B005B005B006C
:103A08005B005B001E011E011E011E011E011E013E
:103A18001E01B0011E010B027A00B001B001B00115
:103A28001E011E011E011E019E021E011E01B6007E
:103A38001E011E011E0119021E014C021E011E015B
:103A48003F071E011E011E011E011E011E011E014F
:103A58001E01B0011E010B027C00B001B001B001D3
:103A680091027C0075001E0184021E017002B800DC
:103A78005E0275001E01190272001C071E011E015C
:103A88001F071E0172000022A6F130031AF8016B0D
:103A980002EB820203EB4202A6F13003092BF5D9AF
:103AA80009928EE70E9B53F8042B002A09920E9375
:103AB800C0F2D2819AF8006081E79AF8006047F076
:103AC80020077CE747F01007BA060E9B40F17D817E
:103AD800073323F007031A465B6852F8084B9946E8
:103AE8000E92002BC0F27F85079B013301F03980CD
:103AF80054EA090327F0800B00F005850A2C79F1B8
:103B0800000380F0938701235F4630348DF84F41DE
:103B18000B930DF24F15079A0B9900238A42B8BFF1
:103B28000A4606929DF883200D930F9313931093E2
:103B3800002A7CD0069B0133069378E047F01007F3
:103B480017F0200900F032810E9B073323F007039A
:103B5800D3F8049053F8084B0E93002327F4806B96
:103B680000228DF88320079A511C00F02A8254EA1B
:103B780009012BF0800740F02382002A41F02B80B6
:103B8800002B40F0C5841BF001030B9300F0548513
:103B980030230DF24F158DF84F31BCE7BAEB05060F
:103BA80000F0BA802A9BC8E9005633442A93299B1F
:103BB8000133072B299305DC08F10808089B3344D7
:103BC8000893E8E60C990A9828AA03F0E3FC80B960
:103BD8000DF1AC08F2E70C990A9828AA03F0DAFC70
:103BE800002800F08A800D9B1BB10D990A9802F0FD
:103BF8007DFC0C9B9B8913F0400F089B18BF4FF06E
:103C0800FF330893089855B0BDE8F08F002E00F0F8
:103C18008380012300228DF8EC6006933BAD8DF87C
:103C280083200B930D9207920F921392109217F024
:103C3800020302D006990231069117F0840B07D1CE
:103C480009990698A1EB0009B9F1000F00F3368332
:103C58002A9C82B10122C8F80420299A0134013231
:103C68000DF18301072A2A942992C8F8001000F35D
:103C7800698308F108087BB10223C8F80430299B3E
:103C88000234013321AA072B2A942993C8F800206B
:103C980000F36C8308F10808BBF1800F00F02E8256
:103CA800079B0B9AA3EB020BBBF1000F00F3718289
:103CB800FB0500F1C5810B9BC8F800501C44C8F8EF
:103CC8000430299B2A940133072B299300F3EA82B5
:103CD80008F108087B0705D5099B069A9D1A002D4F
:103CE80000F35083DDE9083206998A42ACBF9B187D
:103CF8005B180893002C7FF46EAF002329930D9B6B
:103D08001BB10D990A9802F0F1FB55460DF1AC086C
:103D18002B78002B7FF432AE2A9B002B3FF469AF3F
:103D28000C9C0A98214628AA03F034FCA38962E770
:103D38000E9B073323F00702F2E80234CDE914346E
:103D4800DDE9143424F00044994618460E922146C1
:103D58004FF0FF32B64BFCF72FFF002840F0968457
:103D6800484621464FF0FF32B14BFCF707FF0028C9
:103D780040F08C84DDE9140100220023FCF7F4FEF6
:103D8800002840F0A6879DF8832000210320A94D34
:103D9800A94B27F080070D910690472EC8BF1D46F6
:103DA80007910B900F9113911091C1E617F0100332
:103DB80040F0628417F0400200F07B870E9A994623
:103DC80052F8044B0E92A4B2C7E653F8044B0E9374
:103DD800FB0600F141847D0640F13B8444F3C03981
:103DE8004B4624B27DE6012000220E9B069053F834
:103DF800041B3BAD8DF883208DF8EC100E930B90CF
:103E080010E74FF000090E9C079B54F8045B8DF8EF
:103E18008390002D00F0EE865A1C00F060851A464B
:103E28004946284602F012FF0D90002801F09E80B6
:103E38000D9B9DF883205B1B0B9323EAE373CDF85E
:103E48001C900E940693CDF83490CDF83C90CDF8A4
:103E58004C90CDF840906BE6099B5B4209939AF829
:103E6800006047F00407AAE547F0100B1BF0200993
:103E780000F0AA830E9B073323F007031A4652F873
:103E8800084BD3F804900E92012369E63022782675
:103E98000E9B8DF8842053F8044B684A0E934FF01C
:103EA8000009022347F0020B8DF88560189257E647
:103EB800BD0600F1D683FC0600F19386780600F172
:103EC8005D87B90540F18D860E9B089953F8042B40
:103ED800554611700E931BE79AF800606C2E03BFCD
:103EE8009AF8016047F020070AF1010A47F0100725
:103EF80065E59AF80060682E03BF9AF8016047F4F8
:103F080000770AF1010A47F0400758E59AF800607F
:103F180047F0080753E50A9E304602F0E7FB43687E
:103F280018461B9303F0D4FA034630461C931E46EA
:103F380002F0DCFB83681993002E3FF4BBAD199B9C
:103F4800002B3FF4B7AD199B1B78002B3FF4B2ADA3
:103F58009AF8006047F4806731E59AF8006047F006
:103F680001072CE59DF88330002B7FF4A3AD9AF868
:103F780000608DF8834022E59AF8006047F08007DA
:103F88001DE5524612F8016B2A2E01F0EB81A6F1CD
:103F98003003092B924698BF002201F203801AF8D9
:103FA800016B02EB820203EB4202A6F13003092BFC
:103FB800F5D9079205E59AF800608DF88390FEE43C
:103FC800BB46012B3FF49AAD022B54AD12D1189A7F
:103FD80004F00F03D35C240944EA09744FEA191961
:103FE80005F8013D54EA0903F2D154AB5B1B5F4667
:103FF8000B9390E504F00703E40844EA49744FEA98
:10400800D909303354EA09012A4605F8013DF1D1AE
:104018001BF0010FE9D0302BE7D03023023A05F826
:10402800013C54AB9B1A5F4615460B9373E500BFE2
:10403800FFFFEF7F50980008549800086098000828
:10404800652E40F3E980DDE9140100220023FCF726
:1040580081FD002800F0D2810123C8F80430299B93
:10406800BF4A01330134072B2A942993C8F800204A
:1040780000F37A8508F10808229B129A934280F28D
:10408800D782169B179A1C44C8E90023299B2A94B7
:104098000133072B299300F3DD8308F10808129BED
:1040A8005D1E002D7FF716AE102D41F34181DFF81C
:1040B800B492224649461026B946299B0F46DDF898
:1040C80028B00C9C05E008F10808103D102D40F3BD
:1040D800588501331032072BC8E90076CDE929321B
:1040E800F1DD2146584628AA03F054FA00287FF447
:1040F8007AADDDE929320DF1AC08E6E7099B069AAD
:10410800A3EB020BBBF1000F7FF7CAADBBF1100F99
:1041180041F30580DFF84C9241462046A8464C46BC
:104128001023299A0C9DDDF8289006E0ABF1100BBE
:10413800BBF1100F01F1080119DD01321030072A17
:10414800C1E90043CDE92920F0DD2946484628AADF
:1041580003F020FA00287FF446ADDDE92920ABF111
:10416800100BBBF1100F4FF010032BA9E5DC4546EF
:10417800A1468846044601325C44072ACDE9292431
:10418800C8F80090C8F804B000F3188508F10808CA
:1041980086E5BBF1100F40F39785DFF8C8914146DB
:1041A8002046A8464C461023299A0C9DDDF82890F5
:1041B80006E0ABF1100BBBF1100F01F1080119DD9E
:1041C80001321030072AC1E90043CDE92920F0DD8A
:1041D8002946484628AA03F0DDF900287FF403ADF4
:1041E800DDE92920ABF1100BBBF1100F4FF01003E4
:1041F8002BA9E5DC4546A1468846044601325C44C5
:10420800072ACDE92924C8F80090C8F804B000F3BB
:10421800CE8108F108084BE5129B012B40F37E8103
:104228000123299E01341E44072EC8F800502A9401
:10423800C8F80430299600F3E18108F10808169BB4
:104248000136179A1C44072EC8E90023CDE92964D2
:1042580000F3E18108F108080022DDE914010023D8
:10426800FCF778FC002840F07681129B0136013B70
:1042780001351C44072EC8F800502996C8F80430A8
:104288002A9400F35B8108F108081A9B01361C4444
:10429800C8F80430072E24ABCDE92964C8F80030EB
:1042A8007FF716AD0C990A9828AA03F073F900282D
:1042B8007FF499AC2A9C0DF1AC080BE5B9F1100F0D
:1042C80040F35086DDE929214046CDE91D36B84640
:1042D80010244F460C9EA9460A9D04E0103F102F5B
:1042E80000F1080016DD01321F4B1031072AC0E922
:1042F8000034CDE92921F1DD3146284628AA03F00A
:1043080049F900287FF46FACDDE92921103F102F0F
:104318002BA8E8DC4D46DDE91D36B9464746804600
:1043280009EB010401321049072ACDE92924C8F80C
:104338000490C8F8001000F3C3839DF8832008F1A7
:10434800080886E40C990A9828AA1D9303F022F914
:1043580000287FF448AC2A9C1D9B0DF1AC088AE428
:1043680090980008A4980008949800080C990A9856
:1043780028AA03F00FF900287FF435AC2A9C0DF128
:10438800AC0889E4102D40F3C4861026299B0A9FA7
:10439800DDF8309004E0103D102D08F1080817DD15
:1043A8000133B84A1034072BC8E90026CDE929346F
:1043B800F1DD4946384628AA03F0ECF800287FF4D6
:1043C80012ACDDE92934103D102D0DF1AC08E7DC05
:1043D8000133AC4A2C44072BCDE92934C8F80450E2
:1043E800C8F800207FF77EAC0C990A9828AA03F039
:1043F800D1F800287FF4F7AB2A9C73E422990029AE
:1044080040F36F83DDF84090129B9945A8BF994609
:10441800B9F1000F0BDD299B4C440133072BC8E988
:1044280000592A94299300F31D8508F10808109E65
:10443800B9F1000FA8BFA6EB0906002E00F32582EC
:10444800DDF840B07805AB4400F15F82229B129AF8
:10445800934202DBF90740F17684169A17991444BF
:10446800C8E90012299A2A940132072A299200F3EE
:10447800138508F10808129AAE18A6EB0B06D51A90
:10448800AE42A8BF2E46002E0DDD299B34440133D1
:10449800072BC8F800B0C8F804602A94299300F3E1
:1044A800718508F10808002EA8BFAD1B002D7FF705
:1044B80011AC102D40F33C87DFF8CC9122464946D9
:1044C8001026B946299B0F46DDF828B00C9C05E05C
:1044D80008F10808103D102D40F3538301331032C2
:1044E800072BC8E90076CDE92932F1DD2146584687
:1044F80028AA03F04FF800287FF475ABDDE92932CC
:104508000DF1AC08E6E7079B002B7FF4FCAA5F4699
:10451800002354AD07930B93FFF7FDBAFA073FF555
:104528007FAE0123299E01341E44072EC8F800508F
:104538002A94C8F8043029967FF7A5AE0C990A98F2
:1045480028AA03F027F800287FF44DABDDE9296499
:104558000DF1AC0899E6129B5D1E002D7FF795AE14
:10456800102D40F3DF86224607974FF0100BDFF837
:1045780018910A9C0C9F05E008F10808103D102DC1
:1045880040F37F8301361032072EC8E9009BCDE93E
:104598002962F1DD3946204628AA02F0FBFF0028EF
:1045A8007FF421ABDDE929620DF1AC08E6E70C994F
:1045B8000A9828AA02F0EEFF00287FF414AB2A9C80
:1045C8000DF1AC08FFF774BB1BF010030E9A3AD13B
:1045D8001BF0400133D052F8044B99460E92012348
:1045E800A4B2FFF7BDBA2D2364428DF88330BB46D1
:1045F8004FF0010369EB4909FFF7B5BA0C990A981E
:1046080028AA02F0C7FF00287FF4EDAADDE9296493
:104618000DF1AC0813E60C990A9828AA02F0BAFF23
:1046280000287FF4E0AADDE929640DF1AC0813E65F
:10463800FD077FF54FAB24E554ADFFF76CBA1BF4CB
:10464800007940F08A8352F8044B01230E92FFF759
:1046580087BAB80500F19B834FEAE4794B46FFF728
:1046680040BA0E9B089853F8041BC2175546C1E977
:1046780000020E93FFF74CBB0E9B53F8044B0E93AE
:10468800FFF76BBA94980008A4980008DDE91401B4
:1046980002460B46FCF790FA002840F0E985612EA7
:1046A80000F07D85412E00F08B84079B013300F0DC
:1046B8008F8326F02003472B069300F08F85DDE9D2
:1046C800141247F480730F931346002BC0F2B08581
:1046D8000B9300238B461D930D93069B462B00F0EE
:1046E800E983452B00F0468507990B9B0191022130
:1046F800009126A9049123A9039122A95A460A9850
:10470800029100F03DFF069B0546472B40F03A8694
:1047180017F0010FB9460F9F40F0FE84269B5B1BE4
:104728001293069B472B00F06E83069B462B00F0E6
:10473800F083229B1093109B069A013B412A2293F7
:1047480000F0BB850021F2B2002B8DF89020B6BF97
:104758002D222B22109B8DF89120B8BFC3F10103A5
:10476800092B40F39B850DF19F0C6246B64F1C4602
:10477800104687FB0312D917C1EBA20101EB810296
:10478800A3EB42023032632C00F8012C0B4600F1F7
:10479800FF32ECDC3033811EDBB28C4502F8013C81
:1047A80040F2F9850DF1920101E012F8013B9445C0
:1047B80001F8013BF9D10DF1A1030DF192021B1A89
:1047C800134424AA9B1A1A93129B1A9A012B1A446F
:1047D8000B9240F381850B9B169A13440B9300238D
:1047E8000B9A29F4806722EAE27247F480770F93E4
:1047F8000692139310931D9B002B40F02C839DF879
:1048080083200793FFF794B9BB46FFF72FBB8F4B65
:10481800189317F0200900F0F5800E9B073323F05A
:104828000703D3F8049053F8084B0E93F80709D5FB
:1048380054EA090306D030238DF8856047F0020753
:104848008DF88430022327F4806BFFF789B9804BF9
:104858001893DEE70C990A9828AA02F09BFE002814
:104868007FF4C1A92A9C0DF1AC0818E440210A98EC
:1048780001F040FF0C9B18601861002800F0978534
:1048880040230C9A5361FFF762B8102E40F37685E7
:10489800DFF8C091424648462146A846B9464FF03F
:1048A800100B0746299B0A9C0C9D04E00832103E19
:1048B800102E40F3138201331031072BC2E9007B1D
:1048C800CDE92931F2DD2946204628AA02F062FE08
:1048D80000287FF488A9DDE929312BAAE7E72846D3
:1048E800CDF81C900E9402F0F3FD20EAE0739DF8D9
:1048F80083200B90CDF83490CDF83C90CDF84C90B7
:10490800CDF840900693FFF713B9129B4246DDF8A5
:104918004C80EB185E460793CDF82CA010972146E3
:10492800199FDDF87090DDF828A0DDF830B00F9BF6
:104938001395B8F1000F2ED083BB013F08F1FF3863
:104948001B9B4944C2E90039299B2A910133072B53
:10495800299360DC0832079B38789B1B8342A8BFE9
:104968000346002B1C460BDD299819440130072803
:10497800C2E900632A91299000F31481387808323B
:10498800002CB4BF0546051B002D0BDC06440F9B0D
:10499800B8F1000FD0D1002B00F026820F9B013B0D
:1049A8000F93CDE7102D40F39D841024299804E03F
:1049B800103D102D02F1080216DD0130254B103193
:1049C8000728C2E90034CDE92901F1DD59465046EE
:1049D80028AA02F0DFFD00287FF405A9DDE92901F6
:1049E800103D102D2BAAE8DC01301A4B294407286A
:1049F800CDE929015560136000F341823878083207
:104A08000644C4E717F0100300F0A0800E9B53F88B
:104A1800044B0E930AE75946504628AA02F0BAFDFD
:104A280000287FF4E0A82A992BAA94E700230BF426
:104A380080620696CDF82CA0CDF8348092461E46AA
:104A4800DDF8648054AF14E0676666666098000815
:104A580074980008A49800080023204649460A22B2
:104A6800FCF7E8F80A2C79F100031BD304468946C1
:104A78002F4620460A2200234946FCF7DBF830324D
:104A88007D1E013607F8012CBAF1000FE4D098F822
:104A980000309E42E0D1FF2EDED00A2C79F10003CF
:104AA80080F0308154AB5B1BDDF82CA0CDF864801E
:104AB80012965F46069EDDF834800B93FFF72BB8FD
:104AC8000C990A9828AA1D9302F064FD00287FF427
:104AD8008AA89DF883202A9C1D9B0DF1AC08FFF73E
:104AE800B8B80123C8F80430299BBC4A0133013403
:104AF800072B2A942993C8F8002000F3178108F19E
:104B08000808002940F08680129A07F00103134331
:104B18003FF4E0A8169B17991A19C8E90013299BB6
:104B28002A920133072B299300F3378108F10808EB
:104B3800129901338C18072BCDE92934C8F8005095
:104B4800C8F804107FF7C4A8FFF7ACBB17F0400201
:104B580000F0A5800E9A994652F8044B0E92A4B222
:104B680064E6BB46FEF7CABF0C990A9828AA02F069
:104B780011FD00287FF437A82A9C0DF1AC08FFF737
:104B88007BBA14463A464F46914601332C44072BCC
:104B9800C8F80090C8F80450CDE929347FF798A8E0
:104BA800FFF780BB5946504628AA02F0F3FC0028BC
:104BB8007FF419A838782A992BAAE1E60C990A9863
:104BC80028AA02F0E7FC00287FF40DA82A9C0DF122
:104BD800AC08FFF765B8012BBB467FF4F5A9FEF7D3
:104BE80092BF0E9B089953F8042B554611600E93FB
:104BF800FFF78EB8062B294628BF06232A460795B5
:104C08000D950693764D0E940B930F911391109179
:104C1800FEF78EBF169B17981A19C8E90003299B3F
:104C28002A920133072B299300F3B78008F108086B
:104C38000029BFF67DAF4E42103180F2A98341466C
:104C48001024A846DFF89C91DDF828B00C9D04E0FC
:104C58000831103E102E40F3A78201331032072B83
:104C6800C1E90094CDE92932F2DD2946584628AA3F
:104C780002F090FC00287EF4B6AFDDE929322BA9BA
:104C8800E7E71446079F01362C44072ECDE929642F
:104C9800C8F80090C8F804507FF7F5AA4EE417F456
:104CA80000790E9B66D053F8044B91460E93E4B2FC
:104CB800BCE517F400790E9B57D053F8044B914686
:104CC8000E93E4B2FEF749BF299ADFF81891FFF76F
:104CD80095BA2D228DF88320FFF757B845469046A0
:104CE8003A460C464F46914601333444072BCDE9EA
:104CF8002934C8F80090C8F804605CDC08F108089A
:104D0800FFF79EBB1C9B1B99ED1A1A46284602F01A
:104D18000DFC98F801300BB108F10108204649460E
:104D28000A2200230026FBF785FF9FE60C990A98C4
:104D380028AA02F02FFC00287EF455AF22992A9C5D
:104D48000DF1AC08DDE6129AAE18A6EB0B06D51AE3
:104D5800AE42A8BF2E46FFF7A6BB52F8044B8946C1
:104D680001230E92E4B2FEF7FBBE53F8044B0E93F8
:104D7800FEF7F3BE53F8044B0E9357E50E9B0899C4
:104D880053F8042B554611800E93FEF7C1BF44F328
:104D9800C0194B4664B2FEF7A4BE0C990A9828AA1B
:104DA80002F0F8FB00287EF41EAFDDE929322299D3
:104DB8000DF1AC083CE70C990A9828AA02F0EAFB26
:104DC80000287EF410AF2A9C0DF1AC08FFF738BB21
:104DD8000623079326F02003069370E490980008B2
:104DE80088980008A4980008DDE91235EB189E425F
:104DF800B346199790460C4628BF9B46DDF82CA071
:104E0800109FFFF723BB229BDA1C109302DB079A43
:104E1800934204DD023E26F0200306938BE4109BA8
:104E2800129A9342C0F2C28019F0010F00F01D825D
:104E3800169A13440B9319F4806F00F01482109B98
:104E48006726002B76DC0B9B23EAE373069300238B
:104E58000F931393CFE42D2200238DF8832007931B
:104E6800FEF768BE0C990A9828AA02F093FB00285E
:104E78007EF4B9AE2A9C0DF1AC08FFF7D8BA5946B2
:104E8800504628AA02F086FB00287EF4ACAE38789B
:104E98002A992BAA06447AE50C990A9828AA02F0BE
:104EA80079FB00287EF49FAE229B2A9C0DF1AC086A
:104EB800FFF7E1BA07990B9B01910321009126A9FD
:104EC800049123A9039122A95A460A98029100F055
:104ED80057FB03780546302B00F01682229B079A71
:104EE800B94613440F9FEC185846002200230B992B
:104EF800FBF730FE08B1234611E4269BA342BFF41A
:104F08000EAC30215A1C26921970269B9C42F9D867
:104F180005E4229A002A109240F30E82079909F0BC
:104F280001030B4340F07E816626109B0B9319F416
:104F3800806F88D019990B78FF2B00F02582002408
:104F4800109A204604E001300131FF2B00F059810E
:104F5800934280F25681D21A4B78002BF3D10B780A
:104F68000134F2E7DDE92921FFF7DAB9079B9DF85B
:104F780083200E9406930B9307900F901390109034
:104F8800FEF7D6BD0C990A9828AA02F003FB002860
:104F98007EF429AE229D129B2A9C0DF1AC085D1B64
:104FA800FFF781BA00230793FEF70BBD129B169AF1
:104FB8009A18109B0B92002B40F385816726B6E761
:104FC80030238DF8843058238DF88530079B47F0BF
:104FD8000204632B00F3C48000233BAD0D9347F418
:104FE80081730F93DDE914121346002B2746C0F294
:104FF80084800B9300238B461D9326F02003069391
:10500800612E00F01881412E7FF467AB22AA584622
:105018000B9902F013FA00224FF07F53FBF732FB93
:1050280002460B46CDE9102300220023FBF792FD30
:1050380008B101232293AD4B0B93079BCDE912A630
:10504800CDE91E78DDE91067AB46DDF82CA003F149
:10505800FF39109506E00022002309F1FF39FBF71C
:1050680079FDE8B90022A24B30463946FBF70AFB26
:105078000F460646FBF7B6FD0446FBF799FA0B46C2
:10508800024639463046FBF745F91AF80430B9F1BB
:10509800FF3FD8464D4606460F460BF8013BDAD18E
:1050A800304639460022934BA946DDF848A0109DAA
:1050B800CDF84880CDE91001DDF87C80139E1E9F55
:1050C800FBF770FD80BBDDE910010022894BFBF77F
:1050D80041FD08B1E10727D44B46002B06DB3022FF
:1050E80001335B440BF8012B5B45FBD1ABEB0503AC
:1050F800B94612930F9FFFF714BB26F020030693BF
:105108002D22DDE914349B4604F100431D920B93D4
:1051180076E7299BFFF75CB9079BEC18E4E6299A28
:10512800DFF8D491FFF727B8129B26930B9B1BF847
:10513800012CD97B5B468A4209D1302003F8010C47
:10514800269B5A1E269213F8012C9142F6D0392A32
:105158000BBF0B9A0132927AD2B203F8012CC5E741
:105168000A98591C01F0C6FA0546002800F0178174
:105178000D9034E70221009107995A464C1C26A944
:10518800049123A9039122A90B9B0A9801940291E7
:1051980000F0F6F90546B9462C440F9FA4E63023E3
:1051A8008DF8843078230FE745468846013332442A
:1051B800072BCDE92932C8F80090C8F804607FF7BA
:1051C800B5AC0C990A9828AA02F0E4F900287EF4F4
:1051D8000AADDDE929320DF1AC08A9E4079B002BE3
:1051E80008BF0123079347F480730F93159B002B87
:1051F800C0F2B680DDF850B00D900B931D90FFF70C
:1052080073BA1991109213900F940F9A139B1C99CB
:1052180013440B9A01FB03230B9323EAE3730693CE
:10522800FFF7E9BA169B6626D31819440B917EE658
:1052380000230D9364E722AA58460B9902F0FEF862
:1052480000224FF07F53FBF71DFA02460B46CDE9CB
:10525800102300220023FBF77DFC08B101232293D1
:10526800264B0B93E9E66726EDE5109B0B93E2E5E9
:10527800159B0320002BB8BF2D224FF00003A8BFB9
:105288009DF8832019460D931D4D1E4BB8BF8DF810
:10529800832027F080070690FEF77FBD002944D1C0
:1052A80030228DF892200DF19302303302F8013B41
:1052B80024ABD31A1A93FFF787BA06F10F0201211C
:1052C800D2B2FFF741BAC3F101031A4422EAE273EA
:1052D80067260B920693BAE519F0010F3FF47FAAEF
:1052E800FFF779BA2998FFF77FBB00BF74980008C9
:1052F800000030400000E03FA498000860980008D3
:10530800589800085C9800085846002200230B991A
:10531800FBF720FC00287FF4E1AD079BC3F10103F4
:105328002293DCE5DFF89890ADE40DF19202BCE73A
:10533800299BDFF88C9028E4079A09F0010959EABB
:10534800020304D10123662606930B937FE5169B7F
:10535800662601331A4422EAE2730B92069376E535
:105368000D90CDE60E9B9AF80160924653F8042BF7
:105378000E9342EAE2730793FEF721BB299BDFF8FD
:105388004090B1E4079C06E700230F9313933CE792
:10539800DFF82C900AE702231A93FFF715BA0C9945
:1053A8008B8943F0400213468A81FEF724BC4FF0F4
:1053B800FF320C2308920A9A1360FEF723BC00BF41
:1053C800A49800082DE9F047DFF87CA00646DAF833
:1053D800000098460F469146FEF79EFA1B4B1B6845
:1053E800D3F8484124B365681F2D26DC5EB96B1CD1
:1053F8000235DAF80000636044F82570FEF78EFA8B
:105408000020BDE8F087012304EB8501C1F88890EE
:10541800D4F88821AB401A43022EC4F88821C1F879
:105428000881E4D1D4F88C211343C4F88C31DEE729
:1054380003F5A674C3F84841D5E7DAF80000FEF78B
:105448006DFA4FF0FF30DCE7780400204C98000834
:105458002DE9F04F03690C6985B0A342C0F2898039
:10546800013C01F11405A30000F11408019355F85B
:10547800243058F8242001338A469A4208EB8401E4
:105488008146B2FBF3F605EB840702913AD300217B
:10549800AE4640460A46A34603955EF8045B046898
:1054A800ABB206FB03132D0C190C06FB05119BB2BE
:1054B800D21A1FFA84FC94448AB2C2EB144202EB5B
:1054C8002C421FFA8CFC4CEA0243774540F8043B17
:1054D8004FEA11414FEA2242DFD2019B5C4658F85D
:1054E8000330039D73B9029B043B984504D307E03E
:1054F800984504F1FF3403D253F80429002AF7D061
:10550800C9F810405146484601F070FE00282CDBCF
:1055180040460023013655F8041BD0F800C08AB273
:105528009A1A1FFA8CFE0B0C7244C3EB1C4303EB54
:10553800224392B242EA0342AF4240F8042B4FEAB8
:105548002343E8D258F8242008EB84036AB9043BC3
:10555800984504D307E0984504F1FF3403D253F883
:105568000429002AF7D0C9F81040304605B0BDE834
:10557800F08F002005B0BDE8F08F00BF00000000EC
:105588002DE9F04F90469946016C99B00446CDE953
:105598000489259D41B10123426C93408B604A6088
:1055A80001F0CEFB00232364B9F1000AB4BF012344
:1055B80000232B60764BBCBF2AF0004ACDF814A01C
:1055C80033EA0A0300F0AA80DDE9042310461946ED
:1055D80000220023CDE90A01FBF7BCFA074670B1A7
:1055E8000123249A1360269B002B00F0E682694869
:1055F8001860431E0393039819B0BDE8F08F16ABEB
:10560800019317AB00932046DDE90A2301F0B4FEAD
:105618005FEA1A56054640F09780DDE916763E4463
:1056280006F23240202840F3B783C0F140000AFA5E
:1056380000FA06F2124028FA00F04AEA0000FAF7E7
:10564800A7FF0123013E0F93A1F1F8710022524BED
:10565800FAF760FE48A3D3E90023FBF713F848A341
:10566800D3E90023FAF758FE804630468946FAF710
:105678009FFF45A3D3E90023FBF704F802460B4636
:1056880040464946FAF748FE80468946FBF7AAFA9B
:1056980000228346002340464946FBF765FA002866
:1056A80040F07E82BBF1160F00F26D82DDE90A013F
:1056B8003A4B03EBCB03D3E90023FBF755FA002859
:1056C80072D00023BE1B0E93731E0BF1FF3B069393
:1056D80000F1608200230993BBF1000F6BDA099B8C
:1056E800CDF81CB0A3EB0B030993CBF100030D938A
:1056F800229B4FF0000B092B66D8052B40F34A83F9
:105708000026043B2293229B023B032B00F26C866B
:10571800DFE813F061045E045504380442F20F73A5
:10572800249ACAF3130A13605AEA08031AD1269B6B
:10573800002B00F068861A4B03930833269A0398C7
:10574800136019B0BDE8F08FDDE90A12C2F3130344
:10575800084643F07F510F97A6F2FF36169F41F493
:10576800401173E7269B002B40F0EF830D4B03930A
:1057780041E700BFAFF3008061436F63A787D23F63
:10578800B3C8608B288AC63FFB799F501344D33F28
:105798000000F07F919800080000F83F009A000888
:1057A800B8980008B4980008BE1B731E069300F151
:1057B8008A840E900990069B5B44CDE9063B002342
:1057C8000D93229B092B98D9002322934FF0FF3386
:1057D8000126089300230C9623930021089B6164FB
:1057E8001293204601F086FA0390002800F0048600
:1057F800039B2364089B0E2B00F21481002E00F0FB
:1058080011810799002940F36084AF4B01F00F0222
:1058180003EBC2030A46D3E900674FEA2118D10512
:1058280040F11784DDE90A01A84B4FF0030AD3E9D8
:105838000823FBF751F8CDE9100108F00F08B8F17B
:10584800000F13D0DFF8849218F0010F09D0D9E9BE
:10585800002330463946FAF715FF06460F460AF187
:10586800010A5FEA680809F10809EDD1DDE91001CC
:1058780032463B46FBF730F8804689460E9B43B1DB
:10588800002240464946924BFBF76EF9002840F04B
:1058980035855046FAF78CFE42464B46FAF7F2FE3B
:1058A8008C4B0022FAF738FDA1F15073CDE91001B5
:1058B8001193089B002B00F09780079B1493089B7B
:1058C80013930C9B002B00F0A984139A7E4B0020A5
:1058D80003EBC20353E902237F49FAF7FDFFDDE931
:1058E8001023FAF717FDCDE9100149464046FBF7AA
:1058F80079F90746FAF75CFE02460B4640464946E8
:10590800FAF708FDDDE91023039E303706F8017B1E
:1059180080468946FBF728F9002840F02E85CDF807
:1059280054B00027DDE910AB1095139D13942AE0BD
:105938000137AF4280F22E85504659460022674B08
:10594800FAF7A0FE0022654B82468B464046494640
:10595800FAF798FE89468046FBF744F90446FAF7B9
:1059680027FE02460B4640464946FAF7D3FC303438
:1059780052465B4606F8014B80468946FBF7F4F829
:10598800002840F0F88442464B4600205049FAF778
:10599800C1FC52465B46FBF7E7F80028C8D0DDE9B2
:1059A8001343109D039A079302E0964200F0CD84BA
:1059B800B24616F8013D392BF7D00133DBB233700C
:1059C800079B01330793C8E15046FAF7F1FD4246B9
:1059D8004B46FAF757FE3F4B0022FAF79DFCA1F120
:1059E8005073CDE9100111934046494600223C4BC3
:1059F800FAF790FCDDE910894B46424606460F4609
:105A0800FBF7D0F88146002840F0AF84DDE91001AB
:105A1800024601F1004330463946FBF7A5F8002855
:105A280040F04883179B002BC0F28C80079A0E2AFF
:105A380000F38880244B03EBC203D3E900AB239B1C
:105A4800002B1BDA089B002B18DC40F03183002266
:105A5800234B50465946FAF715FE02460B46DDE938
:105A68000A01FBF78BF8DDF820904E46002800F07D
:105A7800CA82239BDDF80C80DF43CCE25246DDE985
:105A88000A785B4638464146FAF726FFFBF7AAF83C
:105A980081460990FAF78CFD52465B46FAF7F2FD0B
:105AA800039E0B46024641463846FAF733FC09F195
:105AB800300306F8013B089B012B00F05F83069436
:105AC80001271C4604952AE0009A0008D899000886
